:020000040800F2
:10000000A0080020010100088904000881040008FC
:100010008504000849010008530900080000000099
:10002000000000000000000000000000A105000822
:10003000ED020008000000008B0400088D06000897
:100040001B0100081B0100081B0100081B01000820
:100050001B0100081B0100081B0100081B01000810
:100060001B0100081B0100081B0100081B01000800
:100070001B0100081B0100081B0100081B010008F0
:100080001B0100081B0100081B0100081B010008E0
:100090001B0100081B0100081B010008F1020008F9
:1000A0001B0100081B0100081B0100081B010008C0
:1000B000F10600081B0100081B0100081B010008D5
:1000C0001B0100081B0100081B0100081B010008A0
:1000D0001B0100081B010008410700081B01000864
:1000E0001B0100081B0100081B010008DFF80CD0F1
:1000F00000F018F800480047810A0008A008002016
:100100000648804706480047FEE7FEE7FEE7FEE7B1
:10011000FEE7FEE7FEE7FEE7FEE7FEE791060008E2
:10012000ED000008064C074D06E0E06840F00103D2
:1001300094E8070098471034AC42F6D3FFF7DAFF93
:100140000C0E00082C0E000800BFFEE721B102686B
:1001500042F00102026004E002684FF6FE731A40AA
:100160000260704701684FF6FE7211400160002185
:10017000016041608160C1604B49884208D14A49B1
:100180000839496841F00F01474A083A51608AE04E
:1001900045491431884208D143490839496841F03A
:1001A000F001414A083A51607DE03F4928318842D8
:1001B00008D13D490839496841F470613A4A083A22
:1001C000516070E038493C31884208D136490839DD
:1001D000496841F47041344A083A516063E0324959
:1001E0005031884208D130490839496841F47021BA
:1001F0002D4A083A516056E02B496431884208D1B3
:1002000029490839496841F47001274A083A516080
:1002100049E025497831884208D12349083949689D
:1002200041F07061204A083A51603CE01F49884221
:1002300006D1011F096841F00F01021F116032E071
:100240001A491431884208D11849091F096841F038
:10025000F001164A121F116025E014492831884226
:1002600008D11249091F096841F470610F4A121F31
:10027000116018E00D493C31884208D10B49091F33
:10028000096841F47041094A121F11600BE00749E7
:100290005031884207D10549091F096841F470218E
:1002A000024A121F11607047080002400804024011
:1002B00010B50022026847F6F0739A430C6A8B6807
:1002C00023430C6923434C6923438C692343CC6942
:1002D00023434C6A23438C6A23431A430260CB684E
:1002E00043600B6883604B68C36010BD70470000BB
:1002F00010B5402000F01CF801280DD1402107481E
:1003000000F0B5F8012804D105480068401C0449F4
:100310000860402000F006F810BD0000000C01400D
:1003200018000020014908607047000014040140D3
:10033000014600200022074B1B6803EA0102054B1F
:1003400014331B680B4013B10AB1012000E00020F8
:1003500070470000000401402DE9F04102460025ED
:100360000026002000230024002791F803C00CF091
:100370000F0591F803C00CF0100CBCF1000F03D076
:1003800091F802C04CEA050591F800C0BCF1000FDD
:1003900031D0146800202BE04FF0010C0CFA00F370
:1003A000B1F800C00CEA03069E4220D183004FF052
:1003B0000F0C0CFA03F7BC4305FA03FC4CEA0404E7
:1003C00091F803C0BCF1280F06D14FF0010C0CFAD4
:1003D00000FCC2F814C00AE091F803C0BCF1480F59
:1003E00005D14FF0010C0CFA00FCC2F810C0401C03
:1003F0000828D1D31460B1F800C0BCF1FF0F34DD80
:10040000546800202EE000F1080C4FF0010808FAB3
:100410000CF3B1F800C00CEA03069E4221D1830020
:100420004FF00F0C0CFA03F7BC4305FA03FC4CEA3F
:10043000040491F803C0BCF1280F05D100F1080CA9
:1004400008FA0CF8C2F8148091F803C0BCF1480F08
:1004500007D100F1080C4FF0010808FA0CF8C2F8B7
:100460001080401C0828CED35460BDE8F0810246BD
:10047000002093680B400BB1012000E00020704782
:1004800000BFFEE700BFFEE77047704729B1064A8C
:1004900052690243044B5A6104E0034A52698243A1
:1004A000014B5A61704700000010024029B1064A12
:1004B00092690243044B9A6104E0034A92698243C1
:1004C000014B9A61704700000010024030B50021D6
:1004D0000022002400232D4D6D6805F00C0121B190
:1004E000042905D0082923D105E0294D056022E023
:1004F000274D05601FE0254D6D6805F47012234DF2
:100500006D6805F48034022505EB92421CB9214D3B
:10051000554305600BE01D4D6D6805F400351DB1B8
:100520001C4D5543056002E0194D5543056002E03E
:10053000174D056000BF00BF144D6D6805F0F00158
:100540000909154D6B5C0568DD4045600F4D6D6810
:1005500005F4E061090A104D6B5C4568DD4085607B
:100560000A4D6D6805F46051C90A0B4D6B5C456816
:10057000DD40C560054D6D6805F44041890B074DB0
:100580006B5CC568B5FBF3F5056130BD001002403A
:1005900000127A0000093D00000000201000002039
:1005A000704710B500F002F810BD00000CB5002037
:1005B000019000903348006840F480303149086071
:1005C00000BF3048006800F4003000900198401CE3
:1005D0000190009818B90198B0F5A06FF1D12948A1
:1005E000006800F4003010B10120009001E000200C
:1005F00000900098012843D12348006840F0100083
:10060000214908600846006820F003000860084699
:10061000006840F0020008601A48406819494860C4
:100620000846406848600846406840F4806048607A
:100630000846406820F47C1048600846406840F452
:10064000E81048600846006840F08070086000BF0D
:100650000C48006800F000700028F9D00948406894
:1006600020F00300074948600846406840F0020057
:10067000486000BF0348406800F00C000828F9D12A
:100680000CBD000000100240002002407047000036
:1006900010B51348006840F0010011490860084691
:1006A0004068104908400E494860084600680E49F5
:1006B00008400B4908600846006820F48020086064
:1006C0000846406820F4FE0048604FF41F00886030
:1006D000FFF767FF4FF000600449086010BD00009D
:1006E000001002400000FFF8FFFFF6FE08ED00E0FA
:1006F00010B50121880700F012F8012808D105483B
:100700000068401C034908600121880700F004F8D4
:1007100010BD000014000020CA430282704730B5AB
:100720000246002000230024158A05EA010395896A
:1007300005EA010413B10CB1012000E0002030BD36
:1007400010B540F225511E4800F068F8012836D156
:100750001B4800F0F9F8C4B21A48007840B9FF2CE1
:1007600027D101201749087000201749087020E0A0
:1007700014480078012810D11448134909784454CA
:1007800011480078401C1049087008460078042879
:100790000FDB02200B4908700BE00A4800780228A2
:1007A00007D1FE2C05D10020064908700120084918
:1007B000087040F22551024800F00CF800BF10BD4F
:1007C0000044004026000020250000201D000020DD
:1007D0001C00002010B50022002340F66A14A1423C
:1007E00000D100BF0A1201249440A3B2DC4304806C
:1007F00010BD21B1828942F40052828104E08289D5
:100800004DF6FF731A40828170471AB1838A0B43F9
:10081000838202E0838A8B438382704770B50246ED
:10082000002400230025002040F66A16B14200D1C2
:1008300000BFC1F3421501F01F03012606FA03F3BE
:10084000012D02D19689334006E0022D02D1168A8D
:10085000334001E0968A33400C12012606FA04F474
:100860001688344013B10CB1012000E0002070BDA7
:100870002DE9F04786B005460E460024A24600BF8B
:10088000A1460027B08900B100BF2F462C8A4CF644
:10089000FF700440F08804432C82AC894EF6F310BC
:1008A0000440B08831890843718908430443AC810E
:1008B000AC8A4FF6FF400440B0890443AC8201A8E3
:1008C000FFF704FE1F48874202D1DDF810A001E0C7
:1008D000DDF80CA0A88900F4004040B10AEBCA0082
:1008E00000EB0A1031684900B0FBF1F807E00AEBB1
:1008F000CA0000EB0A1031688900B0FBF1F86420EF
:10090000B8FBF0F004012009642101FB1089A889DB
:1009100000F4004040B1322000EBC900B0FBF1F020
:1009200000F00700044308E0322000EB09106421C6
:10093000B0FBF1F000F00F0004432C8106B0BDE8DD
:10094000F08700000038014001468888C0F30800A5
:10095000704700BFFEE702E008C8121F08C1002A66
:10096000FAD170477047002001E001C1121F002A30
:10097000FBD1704710B586B00446012144F2010056
:10098000FFF794FD01210420FFF790FD01210846A7
:10099000FFF77CFD4FF40070ADF8040001208DF8E6
:1009A000060018208DF8070001A93048FFF7D4FC95
:1009B0004FF48060ADF8040004208DF8070001A911
:1009C0002A48FFF7C9FC02940020ADF80C00ADF8EE
:1009D0000E00ADF81000ADF814000C20ADF81200B8
:1009E00002A92348FFF744FF2248FFF7BBFB102072
:1009F000214988600020886208611D48001D086048
:100A0000401448620420C86000204860C8618861C2
:100A100080204861002008621648FFF749FC012247
:100A200080211348FFF7F1FE12481430FFF79AFBBC
:100A30000020114988604FF48060C8600F4848600A
:100A4000202008620B481430FFF732FC01224021BD
:100A50000748FFF7DAFE01210548FFF7CAFE01212A
:100A600004481430FFF772FB06B010BD00080140C7
:100A70000038014044000240700400207000002053
:100A80004FF4E130FFF776FF10E0002000E0401C5B
:100A900007498842FBDB074800F010F830B10548F1
:100AA000006805490860084600F054F9EDE70000C9
:100AB000A0860100680000206000002001460020A0
:100AC000814A10708148C06DC0F58060804A1080F6
:100AD000104600887F4A128890420CDA7C480088D1
:100AE00000F580607B4A1288801A7B4A12681044A5
:100AF000794A106009E076480088764A1288801AA0
:100B0000754A12681044744A106006E07348006821
:100B1000734A12881044714A10606F480068704A26
:100B20001288801A6D4A12689042EFDCBBE06B4A73
:100B30001068C21700EB92529212A0EB8222694B0E
:100B40001A8018460088401C674A108067481A4679
:100B50001288805CA5287DD11A461288901DC21784
:100B600000EB92529212A0EB8222604B9A5C5A2ABE
:100B700071D100205E4A107000BF19E0594A1288F6
:100B8000521C584B1A801A461288B2F5806F04DB4B
:100B90001A461288A2F580621A80544A514B1B886B
:100BA000D25C534B1B781A44514B1A70421C10B242
:100BB0000428E3DB4B480088401C4A4A108010465A
:100BC0000088B0F5806F04DB10460088A0F58060D7
:100BD00010804648434A1288805C454A1278904209
:100BE00041D1444801600420434A10800020434A18
:100BF000108020E03C480088B0F5806F05DB3A4863
:100C00000088A0F58060384A10803848364A12883B
:100C1000805C384A1268107033480088401C324AA1
:100C2000108034480068401C324A10603348008805
:100C3000401C324A1080314800882F4A1288904266
:100C4000D8DB294800882E4A106024480068244ACE
:100C5000128801E01DE011E01044204A10600120DC
:100C6000194A10701FE01D480068401C1B4A1060A4
:100C700023480068401C224A106014E017480068AE
:100C8000401C164A10601E480068401C1C4A106038
:100C900009E012480068401C104A106018480068BB
:100CA000401C174A10600C4800680D4A1288801AD0
:100CB0000A4A12689042BFF63AAF05480088054AD2
:100CC0001080014800787047590000200000024061
:100CD000440000204600002034000020380000209E
:100CE00030000020480000204A0000207000002052
:100CF00058000020500000204C0000204E00002032
:100D00005400002070B504460D460F48FFF72AFA3C
:100D100010200E4988600020886208610C48086035
:100D2000401448620846C56044600020C86188617C
:100D300080204861002008620348FFF7B9FA0121CA
:100D40000148FFF703FA70BD440002407004002020
:100D50000438014070B50546A520274908700020D9
:100D6000264908702649087001202649087000208D
:100D70002549088024E02448008855F820401E4971
:100D8000204A12788C54C4F307211B4A1D4800786E
:100D9000401C1154C4F307411A480078801C1154B8
:100DA000220E154917480078C01C0A5415480078CF
:100DB000001D1449087014480088401C124908801E
:100DC000114800880128D6DB012008E00A49095CA7
:100DD0000A4A12781144094A1170411C88B2042849
:100DE000F4DD06480078044948715A2088710721CB
:100DF0000148FFF787FF70BD3C000020580000202D
:100E00005C0000205D0000205A0000202C0E00082D
:100E10000000002070000000560900089C0E000829
:100E20007000002030080000660900080000000083
:100E3000010203040102030406070809020406086C
:100E400000000000000000000000000000000000A2
:100E5000000000000102040810204080070000008C
:100E60000000000000000000000000000000000082
:100E70000000000000000000000000000000000072
:100E80000000000000000000000000000000000062
:0C0E900000000000000000000000000056
:04000005080000ED02
:00000001FF
